{
  "contractName": "SupplyChain",
  "abi": [
    {
      "inputs": [],
      "stateMutability": "nonpayable",
      "type": "constructor"
    },
    {
      "anonymous": false,
      "inputs": [
        {
          "indexed": false,
          "internalType": "uint256",
          "name": "acc_id",
          "type": "uint256"
        },
        {
          "indexed": false,
          "internalType": "address",
          "name": "_address",
          "type": "address"
        },
        {
          "indexed": false,
          "internalType": "string",
          "name": "_username",
          "type": "string"
        },
        {
          "indexed": false,
          "internalType": "enum Library.UserCategory",
          "name": "_userCategory",
          "type": "uint8"
        },
        {
          "indexed": false,
          "internalType": "bool",
          "name": "_isAuthenticated",
          "type": "bool"
        }
      ],
      "name": "ApproveUser",
      "type": "event"
    },
    {
      "anonymous": false,
      "inputs": [
        {
          "indexed": false,
          "internalType": "uint256",
          "name": "reg_id",
          "type": "uint256"
        },
        {
          "indexed": false,
          "internalType": "address",
          "name": "_address",
          "type": "address"
        },
        {
          "indexed": false,
          "internalType": "string",
          "name": "_username",
          "type": "string"
        },
        {
          "indexed": false,
          "internalType": "enum Library.UserCategory",
          "name": "_userCategory",
          "type": "uint8"
        },
        {
          "indexed": false,
          "internalType": "bool",
          "name": "_isAuthenticated",
          "type": "bool"
        }
      ],
      "name": "NewRegistration",
      "type": "event"
    },
    {
      "anonymous": false,
      "inputs": [
        {
          "indexed": false,
          "internalType": "uint256",
          "name": "orderId",
          "type": "uint256"
        },
        {
          "indexed": false,
          "internalType": "uint256",
          "name": "productId",
          "type": "uint256"
        },
        {
          "indexed": false,
          "internalType": "uint256",
          "name": "quantity",
          "type": "uint256"
        },
        {
          "indexed": false,
          "internalType": "uint256",
          "name": "totalPrice",
          "type": "uint256"
        },
        {
          "indexed": false,
          "internalType": "uint256",
          "name": "expectedDeliveryDate",
          "type": "uint256"
        },
        {
          "indexed": false,
          "internalType": "bool",
          "name": "isDelivered",
          "type": "bool"
        },
        {
          "indexed": false,
          "internalType": "address",
          "name": "customer",
          "type": "address"
        },
        {
          "indexed": false,
          "internalType": "address",
          "name": "seller",
          "type": "address"
        },
        {
          "indexed": false,
          "internalType": "bool",
          "name": "isApprovedByCustoms",
          "type": "bool"
        }
      ],
      "name": "Order",
      "type": "event"
    },
    {
      "anonymous": false,
      "inputs": [
        {
          "indexed": false,
          "internalType": "address",
          "name": "_address",
          "type": "address"
        },
        {
          "indexed": false,
          "internalType": "uint256",
          "name": "orderId",
          "type": "uint256"
        }
      ],
      "name": "Ownership",
      "type": "event"
    },
    {
      "anonymous": false,
      "inputs": [
        {
          "indexed": false,
          "internalType": "uint256",
          "name": "ordId",
          "type": "uint256"
        }
      ],
      "name": "ParcelApproval",
      "type": "event"
    },
    {
      "anonymous": false,
      "inputs": [
        {
          "indexed": false,
          "internalType": "uint256",
          "name": "productId",
          "type": "uint256"
        },
        {
          "indexed": false,
          "internalType": "string",
          "name": "productName",
          "type": "string"
        },
        {
          "indexed": false,
          "internalType": "uint256",
          "name": "productPrice",
          "type": "uint256"
        },
        {
          "indexed": false,
          "internalType": "address",
          "name": "_address",
          "type": "address"
        }
      ],
      "name": "Product",
      "type": "event"
    },
    {
      "inputs": [
        {
          "internalType": "address",
          "name": "",
          "type": "address"
        }
      ],
      "name": "accounts",
      "outputs": [
        {
          "internalType": "uint256",
          "name": "id",
          "type": "uint256"
        },
        {
          "internalType": "address",
          "name": "userAddress",
          "type": "address"
        },
        {
          "internalType": "string",
          "name": "username",
          "type": "string"
        },
        {
          "internalType": "enum Library.UserCategory",
          "name": "userCategory",
          "type": "uint8"
        }
      ],
      "stateMutability": "view",
      "type": "function"
    },
    {
      "inputs": [
        {
          "internalType": "uint256",
          "name": "",
          "type": "uint256"
        }
      ],
      "name": "orders",
      "outputs": [
        {
          "internalType": "uint256",
          "name": "id",
          "type": "uint256"
        },
        {
          "internalType": "uint256",
          "name": "productId",
          "type": "uint256"
        },
        {
          "internalType": "uint256",
          "name": "quantity",
          "type": "uint256"
        },
        {
          "internalType": "uint256",
          "name": "totalPrice",
          "type": "uint256"
        },
        {
          "internalType": "uint256",
          "name": "expectedDeliveryDate",
          "type": "uint256"
        },
        {
          "internalType": "bool",
          "name": "isDelivered",
          "type": "bool"
        },
        {
          "internalType": "address",
          "name": "currentOwnership",
          "type": "address"
        },
        {
          "internalType": "address",
          "name": "recepient",
          "type": "address"
        },
        {
          "internalType": "bool",
          "name": "isApprovedByCustoms",
          "type": "bool"
        }
      ],
      "stateMutability": "view",
      "type": "function"
    },
    {
      "inputs": [
        {
          "internalType": "uint256",
          "name": "",
          "type": "uint256"
        }
      ],
      "name": "products",
      "outputs": [
        {
          "internalType": "uint256",
          "name": "id",
          "type": "uint256"
        },
        {
          "internalType": "string",
          "name": "name",
          "type": "string"
        },
        {
          "internalType": "uint256",
          "name": "price",
          "type": "uint256"
        },
        {
          "internalType": "address",
          "name": "seller",
          "type": "address"
        }
      ],
      "stateMutability": "view",
      "type": "function"
    },
    {
      "inputs": [
        {
          "internalType": "address",
          "name": "",
          "type": "address"
        }
      ],
      "name": "registrations",
      "outputs": [
        {
          "internalType": "uint256",
          "name": "id",
          "type": "uint256"
        },
        {
          "internalType": "address",
          "name": "userAddress",
          "type": "address"
        },
        {
          "internalType": "string",
          "name": "username",
          "type": "string"
        },
        {
          "internalType": "enum Library.UserCategory",
          "name": "userCategory",
          "type": "uint8"
        },
        {
          "internalType": "bool",
          "name": "isAuthenticated",
          "type": "bool"
        }
      ],
      "stateMutability": "view",
      "type": "function"
    },
    {
      "inputs": [
        {
          "internalType": "string",
          "name": "username",
          "type": "string"
        },
        {
          "internalType": "enum Library.UserCategory",
          "name": "userCategory",
          "type": "uint8"
        }
      ],
      "name": "registerUser",
      "outputs": [],
      "stateMutability": "nonpayable",
      "type": "function"
    },
    {
      "inputs": [
        {
          "internalType": "address",
          "name": "registeredUser",
          "type": "address"
        }
      ],
      "name": "approveUser",
      "outputs": [],
      "stateMutability": "nonpayable",
      "type": "function"
    },
    {
      "inputs": [
        {
          "internalType": "string",
          "name": "productName",
          "type": "string"
        },
        {
          "internalType": "uint256",
          "name": "productPrice",
          "type": "uint256"
        }
      ],
      "name": "addProduct",
      "outputs": [],
      "stateMutability": "nonpayable",
      "type": "function"
    },
    {
      "inputs": [
        {
          "internalType": "uint256",
          "name": "prodId",
          "type": "uint256"
        },
        {
          "internalType": "uint256",
          "name": "quantity",
          "type": "uint256"
        }
      ],
      "name": "placeOrder",
      "outputs": [],
      "stateMutability": "nonpayable",
      "type": "function"
    },
    {
      "inputs": [
        {
          "internalType": "address",
          "name": "to",
          "type": "address"
        },
        {
          "internalType": "uint256",
          "name": "ordId",
          "type": "uint256"
        }
      ],
      "name": "transferOwnership",
      "outputs": [],
      "stateMutability": "nonpayable",
      "type": "function"
    },
    {
      "inputs": [
        {
          "internalType": "uint256",
          "name": "ordId",
          "type": "uint256"
        }
      ],
      "name": "approveParcels",
      "outputs": [],
      "stateMutability": "nonpayable",
      "type": "function"
    },
    {
      "inputs": [
        {
          "internalType": "uint256",
          "name": "ordId",
          "type": "uint256"
        }
      ],
      "name": "queryOrderOwnership",
      "outputs": [
        {
          "internalType": "enum Library.UserCategory",
          "name": "userCat",
          "type": "uint8"
        }
      ],
      "stateMutability": "view",
      "type": "function"
    },
    {
      "inputs": [
        {
          "internalType": "uint256",
          "name": "ordId",
          "type": "uint256"
        }
      ],
      "name": "checkOrderValidity",
      "outputs": [
        {
          "internalType": "bool",
          "name": "isValid",
          "type": "bool"
        }
      ],
      "stateMutability": "view",
      "type": "function"
    }
  ],
  "bytecode": "0x608060405234801561001057600080fd5b50336000806101000a81548173ffffffffffffffffffffffffffffffffffffffff021916908373ffffffffffffffffffffffffffffffffffffffff1602179055506001808190555060016002819055506001600381905550600160048190555061282d8061007f6000396000f3fe608060405234801561001057600080fd5b50600436106100b45760003560e01c8063843f61e211610071578063843f61e2146101a3578063942e6bcf146101bf578063a85c38ef146101f3578063b15247d91461022b578063ce127d7914610247578063d624fdb614610277576100b4565b80630a276680146100b9578063338e12eb146100d55780635e5c06e2146100f1578063624173aa146101245780637acc0b2014610140578063828c103d14610173575b600080fd5b6100d360048036038101906100ce9190611f51565b610293565b005b6100ef60048036038101906100ea91906120fc565b610c98565b005b61010b60048036038101906101069190612158565b610e4a565b60405161011b94939291906122a2565b60405180910390f35b61013e600480360381019061013991906122ee565b610f2f565b005b61015a600480360381019061015591906122ee565b611018565b60405161016a949392919061231b565b60405180910390f35b61018d600480360381019061018891906122ee565b6110f0565b60405161019a9190612382565b60405180910390f35b6101bd60048036038101906101b8919061239d565b611179565b005b6101d960048036038101906101d49190612158565b6114e2565b6040516101ea9594939291906123dd565b60405180910390f35b61020d600480360381019061020891906122ee565b6115da565b60405161022299989796959493929190612437565b60405180910390f35b610245600480360381019061024091906124c4565b611682565b005b610261600480360381019061025c91906122ee565b6118a4565b60405161026e9190612520565b60405180910390f35b610291600480360381019061028c9190612158565b611982565b005b806008600082815260200190815260200160002060050160019054906101000a900473ffffffffffffffffffffffffffffffffffffffff1673ffffffffffffffffffffffffffffffffffffffff163373ffffffffffffffffffffffffffffffffffffffff161461030257600080fd5b8282600160068111156103185761031761222b565b5b600660003373ffffffffffffffffffffffffffffffffffffffff1673ffffffffffffffffffffffffffffffffffffffff16815260200190815260200160002060030160009054906101000a900460ff16600681111561037a5761037961222b565b5b1480156103fa5750600360068111156103965761039561222b565b5b600660008473ffffffffffffffffffffffffffffffffffffffff1673ffffffffffffffffffffffffffffffffffffffff16815260200190815260200160002060030160009054906101000a900460ff1660068111156103f8576103f761222b565b5b145b801561044957506000600660008473ffffffffffffffffffffffffffffffffffffffff1673ffffffffffffffffffffffffffffffffffffffff1681526020019081526020016000206000015414155b156104e3576000600860008681526020019081526020016000209050858160050160016101000a81548173ffffffffffffffffffffffffffffffffffffffff021916908373ffffffffffffffffffffffffffffffffffffffff1602179055507fcc0234e7248b2d0575eebbf9e7b588273c897463cd77532c179c555709c0ef3386866040516104d992919061253b565b60405180910390a1505b600060068111156104f7576104f661222b565b5b600660003373ffffffffffffffffffffffffffffffffffffffff1673ffffffffffffffffffffffffffffffffffffffff16815260200190815260200160002060030160009054906101000a900460ff1660068111156105595761055861222b565b5b1480156105d95750600260068111156105755761057461222b565b5b600660008473ffffffffffffffffffffffffffffffffffffffff1673ffffffffffffffffffffffffffffffffffffffff16815260200190815260200160002060030160009054906101000a900460ff1660068111156105d7576105d661222b565b5b145b801561062857506000600660008473ffffffffffffffffffffffffffffffffffffffff1673ffffffffffffffffffffffffffffffffffffffff1681526020019081526020016000206000015414155b156106c2576000600860008681526020019081526020016000209050858160050160016101000a81548173ffffffffffffffffffffffffffffffffffffffff021916908373ffffffffffffffffffffffffffffffffffffffff1602179055507fcc0234e7248b2d0575eebbf9e7b588273c897463cd77532c179c555709c0ef3386866040516106b892919061253b565b60405180910390a1505b600360068111156106d6576106d561222b565b5b600660003373ffffffffffffffffffffffffffffffffffffffff1673ffffffffffffffffffffffffffffffffffffffff16815260200190815260200160002060030160009054906101000a900460ff1660068111156107385761073761222b565b5b1480156107b85750600460068111156107545761075361222b565b5b600660008473ffffffffffffffffffffffffffffffffffffffff1673ffffffffffffffffffffffffffffffffffffffff16815260200190815260200160002060030160009054906101000a900460ff1660068111156107b6576107b561222b565b5b145b801561080757506000600660008473ffffffffffffffffffffffffffffffffffffffff1673ffffffffffffffffffffffffffffffffffffffff1681526020019081526020016000206000015414155b156108a1576000600860008681526020019081526020016000209050858160050160016101000a81548173ffffffffffffffffffffffffffffffffffffffff021916908373ffffffffffffffffffffffffffffffffffffffff1602179055507fcc0234e7248b2d0575eebbf9e7b588273c897463cd77532c179c555709c0ef33868660405161089792919061253b565b60405180910390a1505b600460068111156108b5576108b461222b565b5b600660003373ffffffffffffffffffffffffffffffffffffffff1673ffffffffffffffffffffffffffffffffffffffff16815260200190815260200160002060030160009054906101000a900460ff1660068111156109175761091661222b565b5b1480156109975750600260068111156109335761093261222b565b5b600660008473ffffffffffffffffffffffffffffffffffffffff1673ffffffffffffffffffffffffffffffffffffffff16815260200190815260200160002060030160009054906101000a900460ff1660068111156109955761099461222b565b5b145b80156109ca5750600115156008600083815260200190815260200160002060060160149054906101000a900460ff161515145b8015610a1957506000600660008473ffffffffffffffffffffffffffffffffffffffff1673ffffffffffffffffffffffffffffffffffffffff1681526020019081526020016000206000015414155b15610ab3576000600860008681526020019081526020016000209050858160050160016101000a81548173ffffffffffffffffffffffffffffffffffffffff021916908373ffffffffffffffffffffffffffffffffffffffff1602179055507fcc0234e7248b2d0575eebbf9e7b588273c897463cd77532c179c555709c0ef338686604051610aa992919061253b565b60405180910390a1505b60026006811115610ac757610ac661222b565b5b600660003373ffffffffffffffffffffffffffffffffffffffff1673ffffffffffffffffffffffffffffffffffffffff16815260200190815260200160002060030160009054906101000a900460ff166006811115610b2957610b2861222b565b5b148015610ba85750600680811115610b4457610b4361222b565b5b600660008473ffffffffffffffffffffffffffffffffffffffff1673ffffffffffffffffffffffffffffffffffffffff16815260200190815260200160002060030160009054906101000a900460ff166006811115610ba657610ba561222b565b5b145b8015610bf757506000600660008473ffffffffffffffffffffffffffffffffffffffff1673ffffffffffffffffffffffffffffffffffffffff1681526020019081526020016000206000015414155b15610c91576000600860008681526020019081526020016000209050858160050160016101000a81548173ffffffffffffffffffffffffffffffffffffffff021916908373ffffffffffffffffffffffffffffffffffffffff1602179055507fcc0234e7248b2d0575eebbf9e7b588273c897463cd77532c179c555709c0ef338686604051610c8792919061253b565b60405180910390a1505b5050505050565b6040518060a0016040528060015481526020013373ffffffffffffffffffffffffffffffffffffffff168152602001838152602001826006811115610ce057610cdf61222b565b5b815260200160001515815250600560003373ffffffffffffffffffffffffffffffffffffffff1673ffffffffffffffffffffffffffffffffffffffff1681526020019081526020016000206000820151816000015560208201518160010160006101000a81548173ffffffffffffffffffffffffffffffffffffffff021916908373ffffffffffffffffffffffffffffffffffffffff1602179055506040820151816002019080519060200190610d98929190611e06565b5060608201518160030160006101000a81548160ff02191690836006811115610dc457610dc361222b565b5b021790555060808201518160030160016101000a81548160ff0219169083151502179055509050507f7a171328a69244c0ae84b25e1c4f1886b0ab9d9df38f76691e8f3638163744e96001543384846000604051610e269594939291906123dd565b60405180910390a160016000815480929190610e4190612593565b91905055505050565b60066020528060005260406000206000915090508060000154908060010160009054906101000a900473ffffffffffffffffffffffffffffffffffffffff1690806002018054610e999061260b565b80601f0160208091040260200160405190810160405280929190818152602001828054610ec59061260b565b8015610f125780601f10610ee757610100808354040283529160200191610f12565b820191906000526020600020905b815481529060010190602001808311610ef557829003601f168201915b5050505050908060030160009054906101000a900460ff16905084565b60056006811115610f4357610f4261222b565b5b600660003373ffffffffffffffffffffffffffffffffffffffff1673ffffffffffffffffffffffffffffffffffffffff16815260200190815260200160002060030160009054906101000a900460ff166006811115610fa557610fa461222b565b5b14610faf57600080fd5b60016008600083815260200190815260200160002060060160146101000a81548160ff0219169083151502179055507f26c339507c8f1f1b45ddfcc9861218ad46a19ca2822f6cd0dbfbc5ea67c5572b8160405161100d919061263d565b60405180910390a150565b60076020528060005260406000206000915090508060000154908060010180546110419061260b565b80601f016020809104026020016040519081016040528092919081815260200182805461106d9061260b565b80156110ba5780601f1061108f576101008083540402835291602001916110ba565b820191906000526020600020905b81548152906001019060200180831161109d57829003601f168201915b5050505050908060020154908060030160009054906101000a900473ffffffffffffffffffffffffffffffffffffffff16905084565b600080600660003373ffffffffffffffffffffffffffffffffffffffff1673ffffffffffffffffffffffffffffffffffffffff16815260200190815260200160002060000154141561114157600080fd5b6000600860008481526020019081526020016000206004015490508042111561116e576000915050611174565b60019150505b919050565b60068081111561118c5761118b61222b565b5b600660003373ffffffffffffffffffffffffffffffffffffffff1673ffffffffffffffffffffffffffffffffffffffff16815260200190815260200160002060030160009054906101000a900460ff1660068111156111ee576111ed61222b565b5b146111f857600080fd5b6000600660003373ffffffffffffffffffffffffffffffffffffffff1673ffffffffffffffffffffffffffffffffffffffff16815260200190815260200160002060000154141561124857600080fd5b600061012c426112589190612658565b9050600060076000858152602001908152602001600020600201548361127e91906126ae565b905060405180610120016040528060045481526020018581526020018481526020018281526020018381526020016000151581526020016007600087815260200190815260200160002060030160009054906101000a900473ffffffffffffffffffffffffffffffffffffffff1673ffffffffffffffffffffffffffffffffffffffff1681526020013373ffffffffffffffffffffffffffffffffffffffff16815260200160001515815250600860006004548152602001908152602001600020600082015181600001556020820151816001015560408201518160020155606082015181600301556080820151816004015560a08201518160050160006101000a81548160ff02191690831515021790555060c08201518160050160016101000a81548173ffffffffffffffffffffffffffffffffffffffff021916908373ffffffffffffffffffffffffffffffffffffffff16021790555060e08201518160060160006101000a81548173ffffffffffffffffffffffffffffffffffffffff021916908373ffffffffffffffffffffffffffffffffffffffff1602179055506101008201518160060160146101000a81548160ff0219169083151502179055509050507fdf7748dea2d0383a8d89bbeb2580b728a8cef00fdf41a878ab3fefe538dc392860045485858486600033600760008d815260200190815260200160002060030160009054906101000a900473ffffffffffffffffffffffffffffffffffffffff1660006040516114bc99989796959493929190612437565b60405180910390a1600460008154809291906114d790612593565b919050555050505050565b60056020528060005260406000206000915090508060000154908060010160009054906101000a900473ffffffffffffffffffffffffffffffffffffffff16908060020180546115319061260b565b80601f016020809104026020016040519081016040528092919081815260200182805461155d9061260b565b80156115aa5780601f1061157f576101008083540402835291602001916115aa565b820191906000526020600020905b81548152906001019060200180831161158d57829003601f168201915b5050505050908060030160009054906101000a900460ff16908060030160019054906101000a900460ff16905085565b60086020528060005260406000206000915090508060000154908060010154908060020154908060030154908060040154908060050160009054906101000a900460ff16908060050160019054906101000a900473ffffffffffffffffffffffffffffffffffffffff16908060060160009054906101000a900473ffffffffffffffffffffffffffffffffffffffff16908060060160149054906101000a900460ff16905089565b600060068111156116965761169561222b565b5b600660003373ffffffffffffffffffffffffffffffffffffffff1673ffffffffffffffffffffffffffffffffffffffff16815260200190815260200160002060030160009054906101000a900460ff1660068111156116f8576116f761222b565b5b14806117775750600160068111156117135761171261222b565b5b600660003373ffffffffffffffffffffffffffffffffffffffff1673ffffffffffffffffffffffffffffffffffffffff16815260200190815260200160002060030160009054906101000a900460ff1660068111156117755761177461222b565b5b145b61178057600080fd5b604051806080016040528060035481526020018381526020018281526020013373ffffffffffffffffffffffffffffffffffffffff168152506007600060035481526020019081526020016000206000820151816000015560208201518160010190805190602001906117f4929190611e06565b506040820151816002015560608201518160030160006101000a81548173ffffffffffffffffffffffffffffffffffffffff021916908373ffffffffffffffffffffffffffffffffffffffff1602179055509050507f48894911aaa8992c776235f5c025e7c4dc35be128e0485b10861cea6a637d70f600354838333604051611880949392919061231b565b60405180910390a16003600081548092919061189b90612593565b91905055505050565b600080600660003373ffffffffffffffffffffffffffffffffffffffff1673ffffffffffffffffffffffffffffffffffffffff1681526020019081526020016000206000015414156118f557600080fd5b600660006008600085815260200190815260200160002060050160019054906101000a900473ffffffffffffffffffffffffffffffffffffffff1673ffffffffffffffffffffffffffffffffffffffff1673ffffffffffffffffffffffffffffffffffffffff16815260200190815260200160002060030160009054906101000a900460ff169050919050565b60008054906101000a900473ffffffffffffffffffffffffffffffffffffffff1673ffffffffffffffffffffffffffffffffffffffff163373ffffffffffffffffffffffffffffffffffffffff16146119da57600080fd5b806000600560008373ffffffffffffffffffffffffffffffffffffffff1673ffffffffffffffffffffffffffffffffffffffff168152602001908152602001600020600001541415611a2b57600080fd5b604051806080016040528060025481526020018373ffffffffffffffffffffffffffffffffffffffff168152602001600560008573ffffffffffffffffffffffffffffffffffffffff1673ffffffffffffffffffffffffffffffffffffffff1681526020019081526020016000206002018054611aa79061260b565b80601f0160208091040260200160405190810160405280929190818152602001828054611ad39061260b565b8015611b205780601f10611af557610100808354040283529160200191611b20565b820191906000526020600020905b815481529060010190602001808311611b0357829003601f168201915b50505050508152602001600560008573ffffffffffffffffffffffffffffffffffffffff1673ffffffffffffffffffffffffffffffffffffffff16815260200190815260200160002060030160009054906101000a900460ff166006811115611b8c57611b8b61222b565b5b815250600660008473ffffffffffffffffffffffffffffffffffffffff1673ffffffffffffffffffffffffffffffffffffffff1681526020019081526020016000206000820151816000015560208201518160010160006101000a81548173ffffffffffffffffffffffffffffffffffffffff021916908373ffffffffffffffffffffffffffffffffffffffff1602179055506040820151816002019080519060200190611c3b929190611e06565b5060608201518160030160006101000a81548160ff02191690836006811115611c6757611c6661222b565b5b02179055509050506001600560008473ffffffffffffffffffffffffffffffffffffffff1673ffffffffffffffffffffffffffffffffffffffff16815260200190815260200160002060030160016101000a81548160ff0219169083151502179055507fa1f617c1b0db99664e7b33e4a46ad7efb584b513b31c58a561951c3e397b024a60025483600560008673ffffffffffffffffffffffffffffffffffffffff1673ffffffffffffffffffffffffffffffffffffffff168152602001908152602001600020600201600560008773ffffffffffffffffffffffffffffffffffffffff1673ffffffffffffffffffffffffffffffffffffffff16815260200190815260200160002060030160009054906101000a900460ff16600560008873ffffffffffffffffffffffffffffffffffffffff1673ffffffffffffffffffffffffffffffffffffffff16815260200190815260200160002060030160019054906101000a900460ff16604051611de295949392919061279d565b60405180910390a160026000815480929190611dfd90612593565b91905055505050565b828054611e129061260b565b90600052602060002090601f016020900481019282611e345760008555611e7b565b82601f10611e4d57805160ff1916838001178555611e7b565b82800160010185558215611e7b579182015b82811115611e7a578251825591602001919060010190611e5f565b5b509050611e889190611e8c565b5090565b5b80821115611ea5576000816000905550600101611e8d565b5090565b6000604051905090565b600080fd5b600080fd5b600073ffffffffffffffffffffffffffffffffffffffff82169050919050565b6000611ee882611ebd565b9050919050565b611ef881611edd565b8114611f0357600080fd5b50565b600081359050611f1581611eef565b92915050565b6000819050919050565b611f2e81611f1b565b8114611f3957600080fd5b50565b600081359050611f4b81611f25565b92915050565b60008060408385031215611f6857611f67611eb3565b5b6000611f7685828601611f06565b9250506020611f8785828601611f3c565b9150509250929050565b600080fd5b600080fd5b6000601f19601f8301169050919050565b7f4e487b7100000000000000000000000000000000000000000000000000000000600052604160045260246000fd5b611fe482611f9b565b810181811067ffffffffffffffff8211171561200357612002611fac565b5b80604052505050565b6000612016611ea9565b90506120228282611fdb565b919050565b600067ffffffffffffffff82111561204257612041611fac565b5b61204b82611f9b565b9050602081019050919050565b82818337600083830152505050565b600061207a61207584612027565b61200c565b90508281526020810184848401111561209657612095611f96565b5b6120a1848285612058565b509392505050565b600082601f8301126120be576120bd611f91565b5b81356120ce848260208601612067565b91505092915050565b600781106120e457600080fd5b50565b6000813590506120f6816120d7565b92915050565b6000806040838503121561211357612112611eb3565b5b600083013567ffffffffffffffff81111561213157612130611eb8565b5b61213d858286016120a9565b925050602061214e858286016120e7565b9150509250929050565b60006020828403121561216e5761216d611eb3565b5b600061217c84828501611f06565b91505092915050565b61218e81611f1b565b82525050565b61219d81611edd565b82525050565b600081519050919050565b600082825260208201905092915050565b60005b838110156121dd5780820151818401526020810190506121c2565b838111156121ec576000848401525b50505050565b60006121fd826121a3565b61220781856121ae565b93506122178185602086016121bf565b61222081611f9b565b840191505092915050565b7f4e487b7100000000000000000000000000000000000000000000000000000000600052602160045260246000fd5b6007811061226b5761226a61222b565b5b50565b600081905061227c8261225a565b919050565b600061228c8261226e565b9050919050565b61229c81612281565b82525050565b60006080820190506122b76000830187612185565b6122c46020830186612194565b81810360408301526122d681856121f2565b90506122e56060830184612293565b95945050505050565b60006020828403121561230457612303611eb3565b5b600061231284828501611f3c565b91505092915050565b60006080820190506123306000830187612185565b818103602083015261234281866121f2565b90506123516040830185612185565b61235e6060830184612194565b95945050505050565b60008115159050919050565b61237c81612367565b82525050565b60006020820190506123976000830184612373565b92915050565b600080604083850312156123b4576123b3611eb3565b5b60006123c285828601611f3c565b92505060206123d385828601611f3c565b9150509250929050565b600060a0820190506123f26000830188612185565b6123ff6020830187612194565b818103604083015261241181866121f2565b90506124206060830185612293565b61242d6080830184612373565b9695505050505050565b60006101208201905061244d600083018c612185565b61245a602083018b612185565b612467604083018a612185565b6124746060830189612185565b6124816080830188612185565b61248e60a0830187612373565b61249b60c0830186612194565b6124a860e0830185612194565b6124b6610100830184612373565b9a9950505050505050505050565b600080604083850312156124db576124da611eb3565b5b600083013567ffffffffffffffff8111156124f9576124f8611eb8565b5b612505858286016120a9565b925050602061251685828601611f3c565b9150509250929050565b60006020820190506125356000830184612293565b92915050565b60006040820190506125506000830185612194565b61255d6020830184612185565b9392505050565b7f4e487b7100000000000000000000000000000000000000000000000000000000600052601160045260246000fd5b600061259e82611f1b565b91507fffffffffffffffffffffffffffffffffffffffffffffffffffffffffffffffff8214156125d1576125d0612564565b5b600182019050919050565b7f4e487b7100000000000000000000000000000000000000000000000000000000600052602260045260246000fd5b6000600282049050600182168061262357607f821691505b60208210811415612637576126366125dc565b5b50919050565b60006020820190506126526000830184612185565b92915050565b600061266382611f1b565b915061266e83611f1b565b9250827fffffffffffffffffffffffffffffffffffffffffffffffffffffffffffffffff038211156126a3576126a2612564565b5b828201905092915050565b60006126b982611f1b565b91506126c483611f1b565b9250817fffffffffffffffffffffffffffffffffffffffffffffffffffffffffffffffff04831182151516156126fd576126fc612564565b5b828202905092915050565b60008190508160005260206000209050919050565b6000815461272a8161260b565b61273481866121ae565b9450600182166000811461274f576001811461276157612794565b60ff1983168652602086019350612794565b61276a85612708565b60005b8381101561278c5781548189015260018201915060208101905061276d565b808801955050505b50505092915050565b600060a0820190506127b26000830188612185565b6127bf6020830187612194565b81810360408301526127d1818661271d565b90506127e06060830185612293565b6127ed6080830184612373565b969550505050505056fea26469706673582212207e008cf580c7806b492554b28d8dd21684a2bbb6fdae9930c2e135d7ade5179964736f6c634300080b0033",
  "immutableReferences": {},
  "source": "// SPDX-License-Identifier: MIT\npragma solidity >=0.4.22 <0.9.0;\n\nimport \"./Library.sol\";\n\ncontract SupplyChain {\n    // ********** STATE VARIABLES **********\n    // uint256 constant maxDeliveryTime = 864000; // original\n    uint256 constant maxDeliveryTime = 300;\n    address admin;\n    uint256 registrationId;\n    uint256 accountId;\n    uint256 productId;\n    uint256 orderId;\n    mapping(address => Library.Registration) public registrations;\n    mapping(address => Library.Account) public accounts;\n    mapping(uint256 => Library.Product) public products;\n    mapping(uint256 => Library.Order) public orders;\n\n    // ********** CONSTRUCTOR **********\n    constructor() {\n        admin = msg.sender;\n        registrationId = 1;\n        accountId = 1;\n        productId = 1;\n        orderId = 1;\n    }\n\n    // ********** EVENTS **********\n    event NewRegistration(uint256 reg_id, address _address, string _username, Library.UserCategory _userCategory, bool _isAuthenticated);\n    event ApproveUser(uint256 acc_id, address _address, string _username, Library.UserCategory _userCategory, bool _isAuthenticated);\n    event Product(uint256 productId, string productName, uint256 productPrice, address _address);\n    event Order(uint256 orderId, uint256 productId, uint256 quantity, uint256 totalPrice, uint256 expectedDeliveryDate, bool isDelivered, address customer, address seller, bool isApprovedByCustoms);\n    event Ownership(address _address, uint256 orderId);\n    event ParcelApproval(uint256 ordId);\n\n    // ********** MODIFIERS **********\n    modifier VerifyUserIsAdmin() {\n        require(msg.sender == admin);\n        _;\n    }\n\n    modifier VerifyCallerIsUser() {\n        require(accounts[msg.sender].id != 0);\n        _;\n    }\n\n    modifier VerifyUserIsCustoms() {\n        require(\n            accounts[msg.sender].userCategory == Library.UserCategory.Customs\n        );\n        _;\n    }\n\n    modifier VerifyUserIsSeller() {\n        require(\n            accounts[msg.sender].userCategory == Library.UserCategory.LocalSeller || accounts[msg.sender].userCategory == Library.UserCategory.ForeignSeller\n        );\n        _;\n    }\n\n    modifier VerifyUserIsCustomer() {\n        require(\n            accounts[msg.sender].userCategory == Library.UserCategory.Customer\n        );\n        _;\n    }\n\n    modifier VerifyUserRegistration(address regUser) {\n        require(registrations[regUser].id != 0);\n        _;\n    }\n\n    modifier VerifyCallerIsCurrentOwner(uint256 ordId) {\n        require(msg.sender == orders[ordId].currentOwnership);\n        _;\n    }\n\n    modifier VerifyNextOwnerEligibility(address to, uint256 ordId) {\n        if(\n            accounts[msg.sender].userCategory == Library.UserCategory.ForeignSeller &&\n                accounts[to].userCategory == Library.UserCategory.ForeignCarrier && accounts[to].id != 0\n        )\n        _;\n        if(\n            accounts[msg.sender].userCategory == Library.UserCategory.LocalSeller &&\n                accounts[to].userCategory == Library.UserCategory.LocalCarrier && accounts[to].id != 0\n        )\n        _;\n        if(\n            accounts[msg.sender].userCategory ==\n                Library.UserCategory.ForeignCarrier &&\n                accounts[to].userCategory ==\n                Library.UserCategory.ShippingCompany && accounts[to].id != 0\n        )\n        _;\n        if(\n            accounts[msg.sender].userCategory ==\n                Library.UserCategory.ShippingCompany &&\n                accounts[to].userCategory ==\n                Library.UserCategory.LocalCarrier &&\n                orders[ordId].isApprovedByCustoms == true && accounts[to].id != 0\n        )\n        _;\n        if(\n            accounts[msg.sender].userCategory ==\n                Library.UserCategory.LocalCarrier &&\n                accounts[to].userCategory == Library.UserCategory.Customer && accounts[to].id != 0\n        )\n        _;\n    }\n\n    // ********** FUNCTIONS **********\n    function registerUser(\n        string memory username,\n        Library.UserCategory userCategory\n    ) external {\n        registrations[msg.sender] = Library.Registration(\n            registrationId,\n            msg.sender,\n            username,\n            userCategory,\n            false\n        );\n        emit NewRegistration(registrationId, msg.sender, username, userCategory, false);\n        registrationId++;\n    }\n    \n    function approveUser(address registeredUser)\n        external\n        VerifyUserIsAdmin\n        VerifyUserRegistration(registeredUser)\n    {\n        accounts[registeredUser] = Library.Account(\n            accountId,\n            registeredUser,\n            registrations[registeredUser].username,\n            registrations[registeredUser].userCategory\n        );\n        registrations[registeredUser].isAuthenticated = true;\n        emit ApproveUser(accountId, registeredUser, registrations[registeredUser].username, registrations[registeredUser].userCategory, registrations[registeredUser].isAuthenticated);\n        accountId++;\n    }\n    \n    function addProduct(string memory productName, uint256 productPrice)\n        external\n        VerifyUserIsSeller\n    {\n        products[productId] = Library.Product(\n            productId,\n            productName,\n            productPrice,\n            msg.sender\n        );\n        emit Product(productId, productName, productPrice, msg.sender);\n        productId++;\n    }\n\n    function placeOrder(uint256 prodId, uint256 quantity)\n        external\n        VerifyUserIsCustomer\n        VerifyCallerIsUser\n    {\n        uint256 expectedDeliveryDate = block.timestamp + maxDeliveryTime;\n        uint256 totalPrice = quantity * products[prodId].price;\n        orders[orderId] = Library.Order(\n            orderId,\n            prodId,\n            quantity,\n            totalPrice,\n            expectedDeliveryDate,\n            false,\n            products[prodId].seller,\n            msg.sender,\n            false\n        );\n        emit Order(orderId, prodId, quantity, totalPrice, expectedDeliveryDate, false, msg.sender, products[prodId].seller, false);\n        orderId++;\n    }\n\n    function transferOwnership(address to, uint256 ordId)\n        external\n        VerifyCallerIsCurrentOwner(ordId)\n        VerifyNextOwnerEligibility(to, ordId)\n    {\n        Library.Order storage order = orders[ordId];\n        order.currentOwnership = to;\n        emit Ownership(to, ordId);\n    }\n\n    function approveParcels(uint256 ordId) external VerifyUserIsCustoms {\n        orders[ordId].isApprovedByCustoms = true;\n        emit ParcelApproval(ordId);\n    }\n\n    function queryOrderOwnership(uint256 ordId)\n        external\n        view\n        VerifyCallerIsUser\n        returns (Library.UserCategory userCat)\n    {\n        return accounts[orders[ordId].currentOwnership].userCategory;\n    }\n\n    function checkOrderValidity(uint256 ordId)\n        external\n        view\n        VerifyCallerIsUser\n        returns (bool isValid)\n    {\n        uint256 expectedDeliveryDate = orders[ordId].expectedDeliveryDate;\n        if (block.timestamp > expectedDeliveryDate) return false;\n        else return true;\n    }\n}\n",
  "sourcePath": "C:\\Users\\Iram\\projectx\\contracts\\SupplyChain.sol",
  "compiler": {
    "name": "solc",
    "version": "0.8.11+commit.d7f03943.Emscripten.clang"
  },
  "schemaVersion": "3.4.4",
  "updatedAt": "2022-01-29T12:22:49.172Z",
  "devdoc": {
    "kind": "dev",
    "methods": {},
    "version": 1
  },
  "userdoc": {
    "kind": "user",
    "methods": {},
    "version": 1
  }
}